:100000000C9434000C9451000C9451000C94510049
:100010000C9451000C9451000C9451000C9451001C
:100020000C9451000C9451000C9451000C94DE027D
:100030000C9451000C9451000C9451000C945100FC
:100040000C9451000C9451000C947B010C945100C1
:100050000C9451000C9451000C9451000C945100DC
:100060000C9451000C94510011241FBECFEFD8E026
:10007000DEBFCDBF11E0A0E0B1E0EAEDFBE002C0E1
:1000800005900D92A434B107D9F721E0A4E4B1E0C2
:1000900001C01D92A63BB207E1F70E94FA000C9442
:1000A000EB050C94000087B1816087B988B181604D
:1000B00088B908950F931F93CF93DF9300D000D09A
:1000C0001F92CDB7DEB78C0188B18E7F88B92FEF34
:1000D00040EE80E0215040408040E1F700C0000049
:1000E00088B1816088B987B18E7F87B93099FECF9A
:1000F000309BFECF96B1892F817090FDFBCFA0E0A1
:10010000B0E027C0309BFECFEAEBEA95F1F700C0E4
:10011000309B0CC0E7E0F0E0E21BF30B41E050E065
:1001200002C0440F551FEA95E2F7942B3099FECF99
:100130002F5F3F4F03C020E030E090E028303105D2
:100140000CF3E1E0F0E0EC0FFD1FEA0FFB1F9083E2
:100150001196A530B1057CF397B1916097B998B12C
:10016000916098B939819A814B812C81930F940FBA
:10017000920F2D81921305C0F8014083FB0130835B
:1001800081E00F900F900F900F900F90DF91CF9123
:100190001F910F9108951092B90088E98093B800DB
:1001A00084E08093BC00089584EA8093BC00809131
:1001B000BC008823E4F7089584E98093BC00089587
:1001C0008093BB0084E88093BC008091BC008823AE
:1001D000E4F70895811104C084EC8093BC0003C04F
:1001E00084E88093BC008091BC008823E4F7809170
:1001F000BB00089587E60E9484020E948E020E943E
:1002000094020E949A020E94CA020E9453000E9415
:10021000B70148E166E088E10E9461024CE06EE1CE
:100220008EE00E943E0278940E94C7028823F1F07B
:100230006FEA71E083EB91E00E945A008093AE0177
:1002400041EB51E069E471E082EB91E00E94F8013A
:1002500040EB51E064EB71E085EB91E00E94C50159
:1002600080E00E94C40281E08093440180910001FB
:100270008823D1F2809144018823B1F28091AE01AC
:100280008130B1F58091B0011F928F938091B401BC
:100290001F928F938091B5011F928F938091B1012E
:1002A0001F928F93809149011F928F938091B20189
:1002B0001F928F938091AF011F928F938091B30112
:1002C0001F928F9381E091E09F938F938AE491E056
:1002D0009F938F930E9401038AE491E00E94A802F9
:1002E0008DB79EB744960FB6F8949EBF0FBE8DBFD4
:1002F0001092440199CF1F920F920FB60F921124C2
:100300002F933F934F935F936F937F938F939F931D
:10031000AF93BF93EF93FF938091C6008093450105
:1003200080914501833721F080914501833571F437
:1003300080910001882339F087E391E00E94A802B0
:100340001092000103C081E080930001FF91EF91C2
:10035000BF91AF919F918F917F916F915F914F91DD
:100360003F912F910F900FBE0F901F9018950E94F4
:10037000CB000895982F92959F70990F292F220FE7
:10038000220F920F8F70890F0895EF92FF920F93B3
:100390001F93CF93DF93EC018B017A010E94D4006D
:1003A00080ED0E94E00080E00E94E0000E94D40006
:1003B00081ED0E94E00080E00E94EA000E94BA0104
:1003C000F701808380E00E94EA000E94BA01F801F0
:1003D000808381E00E94EA000E94BA0188830E9423
:1003E000DC00DF91CF911F910F91FF90EF90089566
:1003F000EF92FF920F931F93CF93DF937C018B01BA
:10040000EA010E94D40080ED0E94E00084E00E9496
:10041000E0000E94D40081ED0E94E00080E00E9494
:10042000EA000E94BA01F701808380E00E94EA009E
:100430000E94BA01F801808381E00E94EA000E94D4
:10044000BA0188830E94DC00DF91CF911F910F9148
:10045000FF90EF9008959DEC899F912D1124969522
:1004600096959695392F330F232F220F220F230FA6
:10047000821B20E1929F800D112408951F93CF933A
:10048000DF93C82FD62F142F0E94D40080ED0E9436
:10049000E00080E00E94E000812F0E942B020E9479
:1004A000E0008D2F0E942B020E94E0008C2F0E9402
:1004B0002B020E94E0000E94DC00DF91CF911F918F
:1004C00008951F93CF93DF93182FD62FC42F0E9428
:1004D000D40080ED0E94E00084E00E94E000812FC3
:1004E0000E942B020E94E0008D2F0E942B020E948E
:1004F000E0008C2F0E942B020E94E0000E94DC0092
:10050000DF91CF911F9108951092C10096E09093D2
:10051000C2001092C5008093C4000895E1ECF0E0A1
:100520008081886080830895E1ECF0E080818061C3
:1005300080830895E1ECF0E08081806880830895F5
:100540008091C00085FFFCCF08958093C600089578
:10055000EF92FF920F931F93CF937C01C0E007C0EF
:100560000E94A002F80180810E94A502CF5F87014E
:100570000C0F111DF80180818111F2CFCF911F91D5
:100580000F91FF90EF900895809348010895809116
:1005900048010895E1E8F0E080818860808389EF78
:1005A00090E09093890080938800AFE6B0E08C9152
:1005B00082608C9380818360808308951F920F9264
:1005C0000FB60F9211242F938F939F938091460122
:1005D0009091470101969093470180934601803D99
:1005E000974039F481E080934801109247011092BE
:1005F00046019F918F912F910F900FBE0F901F90EA
:100600001895AEE0B0E0E7E0F3E00C94C2050D8988
:100610001E8986E08C831A8309838FEF9FE79E8370
:100620008D83AE01475E5F4F6F89788DCE01019655
:100630000E942303EF81F885E00FF11F10822E96B0
:10064000E4E00C94DE05ABE0B0E0E9E2F3E00C940A
:10065000B4056C017B018A01FC011782168283813B
:1006600081FFCCC1CE0101963C01F6019381F701D7
:1006700093FD859193FF81917F01882309F4BAC18D
:10068000853239F493FD859193FF81917F01853205
:1006900029F4B60190E00E941A05E7CF912C212C95
:1006A000312CFFE1F315D8F08B3279F038F4803239
:1006B00079F08332A1F4232D20611DC08D3261F0C9
:1006C000803369F4232D216016C0832D8260382E7B
:1006D000E32DE4603E2E2AC0F32DF8601DC037FCE8
:1006E0002DC020ED280F2A3040F08E32B9F436FCB0
:1006F00081C1232D2064322E19C036FE06C08AE047
:10070000989E200D1124922E11C0EAE02E9E200DFD
:100710001124222EF32DF0623F2E08C08C3621F4D6
:10072000832D8068382E02C0883641F4F70193FD8E
:10073000859193FF81917F018111B3CF982F9F7D88
:100740009554933028F40C5F1F4F9FE399830DC09D
:10075000833631F0833771F0833509F059C021C0F9
:10076000F801808189830E5F1F4F88248394912C28
:10077000530113C02801F2E04F0E511CF801A08074
:10078000B18036FE03C0692D70E002C06FEF7FEFCD
:10079000C5010E940F054C018201F32DFF773F2E0A
:1007A00016C0280122E0420E511CF801A080B18041
:1007B00036FE03C0692D70E002C06FEF7FEFC50108
:1007C0000E9404054C01F32DF0683F2E820133FC9A
:1007D0001BC0822D90E088169906B0F4B60180E225
:1007E00090E00E941A052A94F4CFF50137FC859118
:1007F00037FE81915F01B60190E00E941A05211039
:100800002A9421E0821A91088114910471F7E8C0BA
:10081000843611F0893641F5F80137FE07C0608152
:100820007181828193810C5F1F4F08C0608171814B
:10083000072E000C880B990B0E5F1F4FF32DFF76D0
:100840003F2E97FF09C090958095709561957F4FD9
:100850008F4F9F4FF0683F2E2AE030E0A3010E94A7
:100860005605882E861845C0853731F4232D2F7EF6
:10087000B22E2AE030E025C0932D997FB92E8F3615
:10088000C1F018F4883579F0B5C0803719F0883791
:1008900021F0B0C0E92FE061BE2EB4FE0DC0FB2DEB
:1008A000F460BF2E09C034FE0AC0292F2660B22E84
:1008B00006C028E030E005C020E130E002C020E1C1
:1008C00032E0F801B7FE07C06081718182819381B7
:1008D0000C5F1F4F06C06081718180E090E00E5F69
:1008E0001F4FA3010E945605882E8618FB2DFF7707
:1008F0003F2E36FE0DC0232D2E7FA22E891458F4D4
:1009000034FE0BC032FC09C0832D8E7EA82E05C09C
:10091000B82CA32C03C0B82C01C0B92CA4FE0FC066
:10092000FE01E80DF11D8081803321F49A2D997E1E
:10093000A92E09C0A2FE06C0B394B39404C08A2DA8
:10094000867809F0B394A3FC11C0A0FE06C0B214CF
:1009500088F4280C922C9B180EC0B21460F4B601D7
:1009600080E290E00E941A05B394F7CFB21418F415
:100970002B1802C0982C212CA4FE10C0B60180E3D5
:1009800090E00E941A05A2FE17C0A1FC03C088E7F0
:1009900090E002C088E590E0B6010CC08A2D867810
:1009A00059F0A1FE02C08BE201C080E2A7FC8DE2FB
:1009B000B60190E00E941A05891438F4B60180E36C
:1009C00090E00E941A059A94F7CF8A94F301E80DFB
:1009D000F11D8081B60190E00E941A058110F5CFCB
:1009E000222009F442CEB60180E290E00E941A056E
:1009F0002A94F6CFF6018681978102C08FEF9FEF90
:100A00002B96E2E10C94D005FC01059061507040FA
:100A10000110D8F7809590958E0F9F1F0895FC01C7
:100A20006150704001900110D8F7809590958E0F1D
:100A30009F1F08950F931F93CF93DF93FB01238193
:100A400021FD03C08FEF9FEF2CC022FF16C046810F
:100A50005781248135814217530744F4A081B18125
:100A60009D012F5F3F4F318320838C9326813781F7
:100A70002F5F3F4F3783268314C08B01EC01FB01AE
:100A80000084F185E02D0995892BE1F6D8011696B1
:100A90008D919C911797019617969C938E9316971C
:100AA000CE01DF91CF911F910F910895FA01AA27EE
:100AB000283051F1203181F1E8946F936E7F6E5FA1
:100AC0007F4F8F4F9F4FAF4FB1E03ED0B4E03CD04F
:100AD000670F781F891F9A1FA11D680F791F8A1F32
:100AE000911DA11D6A0F711D811D911DA11D20D099
:100AF00009F468943F912AE0269F11243019305D53
:100B00003193DEF6CF010895462F4770405D419343
:100B1000B3E00FD0C9F7F6CF462F4F70405D4A3390
:100B200018F0495D31FD4052419302D0A9F7EACF58
:100B3000B4E0A6959795879577956795BA95C9F787
:100B400000976105710508959B01AC010A2E06947A
:100B50005795479537952795BA95C9F7620F731F33
:100B6000841F951FA01D08952F923F924F925F9270
:100B70006F927F928F929F92AF92BF92CF92DF92AD
:100B8000EF92FF920F931F93CF93DF93CDB7DEB712
:100B9000CA1BDB0B0FB6F894DEBF0FBECDBF0994A6
:100BA0002A88398848885F846E847D848C849B84FD
:100BB000AA84B984C884DF80EE80FD800C811B810B
:100BC000AA81B981CE0FD11D0FB6F894DEBF0FBE3A
:0A0BD000CDBFED010895F894FFCFAA
:100BDA000154454D503A253264B0432048554D3AA8
:100BEA002532642046454348413A25642F25642F1F
:100BFA00256420484F52413A2532643A2532643AF4
:100C0A00253264200D0A005041555341444F20209B
:040C1A000D0A0000BF
:00000001FF
